{
  "_format": "hh-sol-artifact-1",
  "contractName": "SafarXID",
  "sourceName": "contracts/SafarXID.sol",
  "abi": [
    {
      "anonymous": false,
      "inputs": [
        {
          "indexed": true,
          "internalType": "address",
          "name": "user",
          "type": "address"
        },
        {
          "indexed": false,
          "internalType": "string",
          "name": "name",
          "type": "string"
        },
        {
          "indexed": false,
          "internalType": "uint256",
          "name": "createdAt",
          "type": "uint256"
        }
      ],
      "name": "TouristRegistered",
      "type": "event"
    },
    {
      "inputs": [
        {
          "internalType": "address",
          "name": "_user",
          "type": "address"
        }
      ],
      "name": "getTourist",
      "outputs": [
        {
          "internalType": "string",
          "name": "",
          "type": "string"
        },
        {
          "internalType": "string",
          "name": "",
          "type": "string"
        },
        {
          "internalType": "uint256",
          "name": "",
          "type": "uint256"
        }
      ],
      "stateMutability": "view",
      "type": "function"
    },
    {
      "inputs": [
        {
          "internalType": "string",
          "name": "_name",
          "type": "string"
        },
        {
          "internalType": "string",
          "name": "_phoneHash",
          "type": "string"
        }
      ],
      "name": "registerTourist",
      "outputs": [],
      "stateMutability": "nonpayable",
      "type": "function"
    },
    {
      "inputs": [
        {
          "internalType": "address",
          "name": "",
          "type": "address"
        }
      ],
      "name": "tourists",
      "outputs": [
        {
          "internalType": "string",
          "name": "name",
          "type": "string"
        },
        {
          "internalType": "string",
          "name": "phoneHash",
          "type": "string"
        },
        {
          "internalType": "uint256",
          "name": "createdAt",
          "type": "uint256"
        }
      ],
      "stateMutability": "view",
      "type": "function"
    }
  ],
  "bytecode": "0x6080604052348015600f57600080fd5b50610bfc8061001f6000396000f3fe608060405234801561001057600080fd5b50600436106100415760003560e01c806382adb9f214610046578063bf33cd4a14610078578063fdd0f6c8146100aa575b600080fd5b610060600480360381019061005b9190610584565b6100c6565b60405161006f9392919061065a565b60405180910390f35b610092600480360381019061008d9190610584565b610200565b6040516100a19392919061065a565b60405180910390f35b6100c460048036038101906100bf91906107d4565b61039c565b005b60006020528060005260406000206000915090508060000180546100e99061087b565b80601f01602080910402602001604051908101604052809291908181526020018280546101159061087b565b80156101625780601f1061013757610100808354040283529160200191610162565b820191906000526020600020905b81548152906001019060200180831161014557829003601f168201915b5050505050908060010180546101779061087b565b80601f01602080910402602001604051908101604052809291908181526020018280546101a39061087b565b80156101f05780601f106101c5576101008083540402835291602001916101f0565b820191906000526020600020905b8154815290600101906020018083116101d357829003601f168201915b5050505050908060020154905083565b6060806000806000808673ffffffffffffffffffffffffffffffffffffffff1673ffffffffffffffffffffffffffffffffffffffff16815260200190815260200160002060405180606001604052908160008201805461025f9061087b565b80601f016020809104026020016040519081016040528092919081815260200182805461028b9061087b565b80156102d85780601f106102ad576101008083540402835291602001916102d8565b820191906000526020600020905b8154815290600101906020018083116102bb57829003601f168201915b505050505081526020016001820180546102f19061087b565b80601f016020809104026020016040519081016040528092919081815260200182805461031d9061087b565b801561036a5780601f1061033f5761010080835404028352916020019161036a565b820191906000526020600020905b81548152906001019060200180831161034d57829003601f168201915b505050505081526020016002820154815250509050806000015181602001518260400151935093509350509193909250565b60008060003373ffffffffffffffffffffffffffffffffffffffff1673ffffffffffffffffffffffffffffffffffffffff16815260200190815260200160002060000180546103ea9061087b565b90501461042c576040517f08c379a0000000000000000000000000000000000000000000000000000000008152600401610423906108f8565b60405180910390fd5b6040518060600160405280838152602001828152602001428152506000803373ffffffffffffffffffffffffffffffffffffffff1673ffffffffffffffffffffffffffffffffffffffff168152602001908152602001600020600082015181600001908161049a9190610ac4565b5060208201518160010190816104b09190610ac4565b50604082015181600201559050503373ffffffffffffffffffffffffffffffffffffffff167f8e3413ce2e0caf9329bcbeaad68d2f5b50e098839b5efd33372014c1ba0021e68342604051610506929190610b96565b60405180910390a25050565b6000604051905090565b600080fd5b600080fd5b600073ffffffffffffffffffffffffffffffffffffffff82169050919050565b600061055182610526565b9050919050565b61056181610546565b811461056c57600080fd5b50565b60008135905061057e81610558565b92915050565b60006020828403121561059a5761059961051c565b5b60006105a88482850161056f565b91505092915050565b600081519050919050565b600082825260208201905092915050565b60005b838110156105eb5780820151818401526020810190506105d0565b60008484015250505050565b6000601f19601f8301169050919050565b6000610613826105b1565b61061d81856105bc565b935061062d8185602086016105cd565b610636816105f7565b840191505092915050565b6000819050919050565b61065481610641565b82525050565b600060608201905081810360008301526106748186610608565b905081810360208301526106888185610608565b9050610697604083018461064b565b949350505050565b600080fd5b600080fd5b7f4e487b7100000000000000000000000000000000000000000000000000000000600052604160045260246000fd5b6106e1826105f7565b810181811067ffffffffffffffff82111715610700576106ff6106a9565b5b80604052505050565b6000610713610512565b905061071f82826106d8565b919050565b600067ffffffffffffffff82111561073f5761073e6106a9565b5b610748826105f7565b9050602081019050919050565b82818337600083830152505050565b600061077761077284610724565b610709565b905082815260208101848484011115610793576107926106a4565b5b61079e848285610755565b509392505050565b600082601f8301126107bb576107ba61069f565b5b81356107cb848260208601610764565b91505092915050565b600080604083850312156107eb576107ea61051c565b5b600083013567ffffffffffffffff81111561080957610808610521565b5b610815858286016107a6565b925050602083013567ffffffffffffffff81111561083657610835610521565b5b610842858286016107a6565b9150509250929050565b7f4e487b7100000000000000000000000000000000000000000000000000000000600052602260045260246000fd5b6000600282049050600182168061089357607f821691505b6020821081036108a6576108a561084c565b5b50919050565b7f416c726561647920726567697374657265640000000000000000000000000000600082015250565b60006108e26012836105bc565b91506108ed826108ac565b602082019050919050565b60006020820190508181036000830152610911816108d5565b9050919050565b60008190508160005260206000209050919050565b60006020601f8301049050919050565b600082821b905092915050565b60006008830261097a7fffffffffffffffffffffffffffffffffffffffffffffffffffffffffffffffff8261093d565b610984868361093d565b95508019841693508086168417925050509392505050565b6000819050919050565b60006109c16109bc6109b784610641565b61099c565b610641565b9050919050565b6000819050919050565b6109db836109a6565b6109ef6109e7826109c8565b84845461094a565b825550505050565b600090565b610a046109f7565b610a0f8184846109d2565b505050565b5b81811015610a3357610a286000826109fc565b600181019050610a15565b5050565b601f821115610a7857610a4981610918565b610a528461092d565b81016020851015610a61578190505b610a75610a6d8561092d565b830182610a14565b50505b505050565b600082821c905092915050565b6000610a9b60001984600802610a7d565b1980831691505092915050565b6000610ab48383610a8a565b9150826002028217905092915050565b610acd826105b1565b67ffffffffffffffff811115610ae657610ae56106a9565b5b610af0825461087b565b610afb828285610a37565b600060209050601f831160018114610b2e5760008415610b1c578287015190505b610b268582610aa8565b865550610b8e565b601f198416610b3c86610918565b60005b82811015610b6457848901518255600182019150602085019450602081019050610b3f565b86831015610b815784890151610b7d601f891682610a8a565b8355505b6001600288020188555050505b505050505050565b60006040820190508181036000830152610bb08185610608565b9050610bbf602083018461064b565b939250505056fea26469706673582212204bae97390ca350040b51038ae25b6c8dcdd52b36a9fd7f52e2458e68276bbdf464736f6c634300081c0033",
  "linkReferences": {},
  "deployedLinkReferences": {}
}